{
  "_format": "hh-sol-artifact-1",
  "contractName": "MyEpicGame",
  "sourceName": "contracts/MyEpicGame.sol",
  "abi": [
    {
      "inputs": [
        {
          "internalType": "string[]",
          "name": "characterNames",
          "type": "string[]"
        },
        {
          "internalType": "string[]",
          "name": "characterImageURIs",
          "type": "string[]"
        },
        {
          "internalType": "uint256[]",
          "name": "characterHp",
          "type": "uint256[]"
        },
        {
          "internalType": "uint256[]",
          "name": "characterAttackDmg",
          "type": "uint256[]"
        },
        {
          "internalType": "uint256[]",
          "name": "characterMana",
          "type": "uint256[]"
        },
        {
          "internalType": "string",
          "name": "bossName",
          "type": "string"
        },
        {
          "internalType": "string",
          "name": "bossImageURI",
          "type": "string"
        },
        {
          "internalType": "uint256",
          "name": "bossHp",
          "type": "uint256"
        },
        {
          "internalType": "uint256",
          "name": "bossAttackDamage",
          "type": "uint256"
        }
      ],
      "stateMutability": "nonpayable",
      "type": "constructor"
    },
    {
      "anonymous": false,
      "inputs": [
        {
          "indexed": true,
          "internalType": "address",
          "name": "owner",
          "type": "address"
        },
        {
          "indexed": true,
          "internalType": "address",
          "name": "approved",
          "type": "address"
        },
        {
          "indexed": true,
          "internalType": "uint256",
          "name": "tokenId",
          "type": "uint256"
        }
      ],
      "name": "Approval",
      "type": "event"
    },
    {
      "anonymous": false,
      "inputs": [
        {
          "indexed": true,
          "internalType": "address",
          "name": "owner",
          "type": "address"
        },
        {
          "indexed": true,
          "internalType": "address",
          "name": "operator",
          "type": "address"
        },
        {
          "indexed": false,
          "internalType": "bool",
          "name": "approved",
          "type": "bool"
        }
      ],
      "name": "ApprovalForAll",
      "type": "event"
    },
    {
      "anonymous": false,
      "inputs": [
        {
          "indexed": false,
          "internalType": "address",
          "name": "sender",
          "type": "address"
        },
        {
          "indexed": false,
          "internalType": "uint256",
          "name": "newBossHp",
          "type": "uint256"
        },
        {
          "indexed": false,
          "internalType": "uint256",
          "name": "newPlayerHp",
          "type": "uint256"
        }
      ],
      "name": "AttackComplete",
      "type": "event"
    },
    {
      "anonymous": false,
      "inputs": [
        {
          "indexed": false,
          "internalType": "address",
          "name": "sender",
          "type": "address"
        },
        {
          "indexed": false,
          "internalType": "uint256",
          "name": "tokenId",
          "type": "uint256"
        },
        {
          "indexed": false,
          "internalType": "uint256",
          "name": "characterIndex",
          "type": "uint256"
        }
      ],
      "name": "CharacterNFTMinted",
      "type": "event"
    },
    {
      "anonymous": false,
      "inputs": [
        {
          "indexed": true,
          "internalType": "address",
          "name": "from",
          "type": "address"
        },
        {
          "indexed": true,
          "internalType": "address",
          "name": "to",
          "type": "address"
        },
        {
          "indexed": true,
          "internalType": "uint256",
          "name": "tokenId",
          "type": "uint256"
        }
      ],
      "name": "Transfer",
      "type": "event"
    },
    {
      "inputs": [
        {
          "internalType": "address",
          "name": "to",
          "type": "address"
        },
        {
          "internalType": "uint256",
          "name": "tokenId",
          "type": "uint256"
        }
      ],
      "name": "approve",
      "outputs": [],
      "stateMutability": "nonpayable",
      "type": "function"
    },
    {
      "inputs": [],
      "name": "attackBoss",
      "outputs": [],
      "stateMutability": "nonpayable",
      "type": "function"
    },
    {
      "inputs": [
        {
          "internalType": "address",
          "name": "owner",
          "type": "address"
        }
      ],
      "name": "balanceOf",
      "outputs": [
        {
          "internalType": "uint256",
          "name": "",
          "type": "uint256"
        }
      ],
      "stateMutability": "view",
      "type": "function"
    },
    {
      "inputs": [],
      "name": "bigBoss",
      "outputs": [
        {
          "internalType": "string",
          "name": "name",
          "type": "string"
        },
        {
          "internalType": "string",
          "name": "imageURI",
          "type": "string"
        },
        {
          "internalType": "uint256",
          "name": "hp",
          "type": "uint256"
        },
        {
          "internalType": "uint256",
          "name": "maxHp",
          "type": "uint256"
        },
        {
          "internalType": "uint256",
          "name": "attackDamage",
          "type": "uint256"
        }
      ],
      "stateMutability": "view",
      "type": "function"
    },
    {
      "inputs": [],
      "name": "checkIfUserHasNFT",
      "outputs": [
        {
          "components": [
            {
              "internalType": "uint256",
              "name": "characterIndex",
              "type": "uint256"
            },
            {
              "internalType": "string",
              "name": "name",
              "type": "string"
            },
            {
              "internalType": "string",
              "name": "imageURI",
              "type": "string"
            },
            {
              "internalType": "uint256",
              "name": "hp",
              "type": "uint256"
            },
            {
              "internalType": "uint256",
              "name": "maxHp",
              "type": "uint256"
            },
            {
              "internalType": "uint256",
              "name": "attackDamage",
              "type": "uint256"
            },
            {
              "internalType": "uint256",
              "name": "mana",
              "type": "uint256"
            }
          ],
          "internalType": "struct MyEpicGame.CharacterAttributes",
          "name": "",
          "type": "tuple"
        }
      ],
      "stateMutability": "view",
      "type": "function"
    },
    {
      "inputs": [],
      "name": "getAllDefaultCharacters",
      "outputs": [
        {
          "components": [
            {
              "internalType": "uint256",
              "name": "characterIndex",
              "type": "uint256"
            },
            {
              "internalType": "string",
              "name": "name",
              "type": "string"
            },
            {
              "internalType": "string",
              "name": "imageURI",
              "type": "string"
            },
            {
              "internalType": "uint256",
              "name": "hp",
              "type": "uint256"
            },
            {
              "internalType": "uint256",
              "name": "maxHp",
              "type": "uint256"
            },
            {
              "internalType": "uint256",
              "name": "attackDamage",
              "type": "uint256"
            },
            {
              "internalType": "uint256",
              "name": "mana",
              "type": "uint256"
            }
          ],
          "internalType": "struct MyEpicGame.CharacterAttributes[]",
          "name": "",
          "type": "tuple[]"
        }
      ],
      "stateMutability": "view",
      "type": "function"
    },
    {
      "inputs": [
        {
          "internalType": "uint256",
          "name": "tokenId",
          "type": "uint256"
        }
      ],
      "name": "getApproved",
      "outputs": [
        {
          "internalType": "address",
          "name": "",
          "type": "address"
        }
      ],
      "stateMutability": "view",
      "type": "function"
    },
    {
      "inputs": [],
      "name": "getBigBoss",
      "outputs": [
        {
          "components": [
            {
              "internalType": "string",
              "name": "name",
              "type": "string"
            },
            {
              "internalType": "string",
              "name": "imageURI",
              "type": "string"
            },
            {
              "internalType": "uint256",
              "name": "hp",
              "type": "uint256"
            },
            {
              "internalType": "uint256",
              "name": "maxHp",
              "type": "uint256"
            },
            {
              "internalType": "uint256",
              "name": "attackDamage",
              "type": "uint256"
            }
          ],
          "internalType": "struct MyEpicGame.BigBoss",
          "name": "",
          "type": "tuple"
        }
      ],
      "stateMutability": "view",
      "type": "function"
    },
    {
      "inputs": [
        {
          "internalType": "address",
          "name": "owner",
          "type": "address"
        },
        {
          "internalType": "address",
          "name": "operator",
          "type": "address"
        }
      ],
      "name": "isApprovedForAll",
      "outputs": [
        {
          "internalType": "bool",
          "name": "",
          "type": "bool"
        }
      ],
      "stateMutability": "view",
      "type": "function"
    },
    {
      "inputs": [
        {
          "internalType": "uint256",
          "name": "_characterIndex",
          "type": "uint256"
        }
      ],
      "name": "mintCharacterNFT",
      "outputs": [],
      "stateMutability": "nonpayable",
      "type": "function"
    },
    {
      "inputs": [],
      "name": "name",
      "outputs": [
        {
          "internalType": "string",
          "name": "",
          "type": "string"
        }
      ],
      "stateMutability": "view",
      "type": "function"
    },
    {
      "inputs": [
        {
          "internalType": "uint256",
          "name": "",
          "type": "uint256"
        }
      ],
      "name": "nftHolderAttributes",
      "outputs": [
        {
          "internalType": "uint256",
          "name": "characterIndex",
          "type": "uint256"
        },
        {
          "internalType": "string",
          "name": "name",
          "type": "string"
        },
        {
          "internalType": "string",
          "name": "imageURI",
          "type": "string"
        },
        {
          "internalType": "uint256",
          "name": "hp",
          "type": "uint256"
        },
        {
          "internalType": "uint256",
          "name": "maxHp",
          "type": "uint256"
        },
        {
          "internalType": "uint256",
          "name": "attackDamage",
          "type": "uint256"
        },
        {
          "internalType": "uint256",
          "name": "mana",
          "type": "uint256"
        }
      ],
      "stateMutability": "view",
      "type": "function"
    },
    {
      "inputs": [
        {
          "internalType": "address",
          "name": "",
          "type": "address"
        }
      ],
      "name": "nftHolders",
      "outputs": [
        {
          "internalType": "uint256",
          "name": "",
          "type": "uint256"
        }
      ],
      "stateMutability": "view",
      "type": "function"
    },
    {
      "inputs": [
        {
          "internalType": "uint256",
          "name": "tokenId",
          "type": "uint256"
        }
      ],
      "name": "ownerOf",
      "outputs": [
        {
          "internalType": "address",
          "name": "",
          "type": "address"
        }
      ],
      "stateMutability": "view",
      "type": "function"
    },
    {
      "inputs": [
        {
          "internalType": "address",
          "name": "from",
          "type": "address"
        },
        {
          "internalType": "address",
          "name": "to",
          "type": "address"
        },
        {
          "internalType": "uint256",
          "name": "tokenId",
          "type": "uint256"
        }
      ],
      "name": "safeTransferFrom",
      "outputs": [],
      "stateMutability": "nonpayable",
      "type": "function"
    },
    {
      "inputs": [
        {
          "internalType": "address",
          "name": "from",
          "type": "address"
        },
        {
          "internalType": "address",
          "name": "to",
          "type": "address"
        },
        {
          "internalType": "uint256",
          "name": "tokenId",
          "type": "uint256"
        },
        {
          "internalType": "bytes",
          "name": "_data",
          "type": "bytes"
        }
      ],
      "name": "safeTransferFrom",
      "outputs": [],
      "stateMutability": "nonpayable",
      "type": "function"
    },
    {
      "inputs": [
        {
          "internalType": "address",
          "name": "operator",
          "type": "address"
        },
        {
          "internalType": "bool",
          "name": "approved",
          "type": "bool"
        }
      ],
      "name": "setApprovalForAll",
      "outputs": [],
      "stateMutability": "nonpayable",
      "type": "function"
    },
    {
      "inputs": [],
      "name": "specialAttack",
      "outputs": [],
      "stateMutability": "nonpayable",
      "type": "function"
    },
    {
      "inputs": [
        {
          "internalType": "bytes4",
          "name": "interfaceId",
          "type": "bytes4"
        }
      ],
      "name": "supportsInterface",
      "outputs": [
        {
          "internalType": "bool",
          "name": "",
          "type": "bool"
        }
      ],
      "stateMutability": "view",
      "type": "function"
    },
    {
      "inputs": [],
      "name": "symbol",
      "outputs": [
        {
          "internalType": "string",
          "name": "",
          "type": "string"
        }
      ],
      "stateMutability": "view",
      "type": "function"
    },
    {
      "inputs": [
        {
          "internalType": "uint256",
          "name": "_tokenId",
          "type": "uint256"
        }
      ],
      "name": "tokenURI",
      "outputs": [
        {
          "internalType": "string",
          "name": "",
          "type": "string"
        }
      ],
      "stateMutability": "view",
      "type": "function"
    },
    {
      "inputs": [
        {
          "internalType": "address",
          "name": "from",
          "type": "address"
        },
        {
          "internalType": "address",
          "name": "to",
          "type": "address"
        },
        {
          "internalType": "uint256",
          "name": "tokenId",
          "type": "uint256"
        }
      ],
      "name": "transferFrom",
      "outputs": [],
      "stateMutability": "nonpayable",
      "type": "function"
    }
  ],
  "bytecode": "0x60806040523480156200001157600080fd5b5060405162005f6c38038062005f6c833981810160405281019062000037919062000ab6565b6040518060400160405280600681526020017f4865726f657300000000000000000000000000000000000000000000000000008152506040518060400160405280600481526020017f4865726f000000000000000000000000000000000000000000000000000000008152508160009080519060200190620000bb92919062000849565b508060019080519060200190620000d492919062000849565b5050506040518060a0016040528085815260200184815260200183815260200183815260200182815250600a60008201518160000190805190602001906200011e92919062000849565b5060208201518160010190805190602001906200013d92919062000849565b50604082015181600201556060820151816003015560808201518160040155905050620002c06040518060600160405280602a815260200162005f42602a9139600a60000180546200018f9062000e68565b80601f0160208091040260200160405190810160405280929190818152602001828054620001bd9062000e68565b80156200020e5780601f10620001e2576101008083540402835291602001916200020e565b820191906000526020600020905b815481529060010190602001808311620001f057829003601f168201915b5050505050600a60020154600a60010180546200022b9062000e68565b80601f0160208091040260200160405190810160405280929190818152602001828054620002599062000e68565b8015620002aa5780601f106200027e57610100808354040283529160200191620002aa565b820191906000526020600020905b8154815290600101906020018083116200028c57829003601f168201915b50505050506200075e60201b620020bc1760201c565b60005b8951811015620007375760076040518060e001604052808381526020018c84815181106200031a577f4e487b7100000000000000000000000000000000000000000000000000000000600052603260045260246000fd5b602002602001015181526020018b848151811062000361577f4e487b7100000000000000000000000000000000000000000000000000000000600052603260045260246000fd5b602002602001015181526020018a8481518110620003a8577f4e487b7100000000000000000000000000000000000000000000000000000000600052603260045260246000fd5b602002602001015181526020018a8481518110620003ef577f4e487b7100000000000000000000000000000000000000000000000000000000600052603260045260246000fd5b6020026020010151815260200189848151811062000436577f4e487b7100000000000000000000000000000000000000000000000000000000600052603260045260246000fd5b602002602001015181526020018884815181106200047d577f4e487b7100000000000000000000000000000000000000000000000000000000600052603260045260246000fd5b60200260200101518152509080600181540180825580915050600190039060005260206000209060070201600090919091909150600082015181600001556020820151816001019080519060200190620004d992919062000849565b506040820151816002019080519060200190620004f892919062000849565b50606082015181600301556080820151816004015560a0820151816005015560c08201518160060155505060006007828154811062000560577f4e487b7100000000000000000000000000000000000000000000000000000000600052603260045260246000fd5b90600052602060002090600702016040518060e001604052908160008201548152602001600182018054620005959062000e68565b80601f0160208091040260200160405190810160405280929190818152602001828054620005c39062000e68565b8015620006145780601f10620005e85761010080835404028352916020019162000614565b820191906000526020600020905b815481529060010190602001808311620005f657829003601f168201915b505050505081526020016002820180546200062f9062000e68565b80601f01602080910402602001604051908101604052809291908181526020018280546200065d9062000e68565b8015620006ae5780601f106200068257610100808354040283529160200191620006ae565b820191906000526020600020905b8154815290600101906020018083116200069057829003601f168201915b5050505050815260200160038201548152602001600482015481526020016005820154815260200160068201548152505090506200071f60405180606001604052806025815260200162005f1d602591398260200151836060015184604001516200075e60201b620020bc1760201c565b506001816200072f919062000dcb565b9050620002c3565b506200074f60066200080a60201b6200215e1760201c565b50505050505050505062000f8c565b62000804848484846040516024016200077b949392919062000c90565b6040516020818303038152906040527f8d142cdd000000000000000000000000000000000000000000000000000000007bffffffffffffffffffffffffffffffffffffffffffffffffffffffff19166020820180517bffffffffffffffffffffffffffffffffffffffffffffffffffffffff83818316178352505050506200082060201b60201c565b50505050565b6001816000016000828254019250508190555050565b60008151905060006a636f6e736f6c652e6c6f679050602083016000808483855afa5050505050565b828054620008579062000e68565b90600052602060002090601f0160209004810192826200087b5760008555620008c7565b82601f106200089657805160ff1916838001178555620008c7565b82800160010185558215620008c7579182015b82811115620008c6578251825591602001919060010190620008a9565b5b509050620008d69190620008da565b5090565b5b80821115620008f5576000816000905550600101620008db565b5090565b6000620009106200090a8462000d1b565b62000cf2565b9050808382526020820190508260005b8581101562000954578151850162000939888262000a72565b84526020840193506020830192505060018101905062000920565b5050509392505050565b6000620009756200096f8462000d4a565b62000cf2565b905080838252602082019050828560208602820111156200099557600080fd5b60005b85811015620009c95781620009ae888262000a9f565b84526020840193506020830192505060018101905062000998565b5050509392505050565b6000620009ea620009e48462000d79565b62000cf2565b90508281526020810184848401111562000a0357600080fd5b62000a1084828562000e32565b509392505050565b600082601f83011262000a2a57600080fd5b815162000a3c848260208601620008f9565b91505092915050565b600082601f83011262000a5757600080fd5b815162000a698482602086016200095e565b91505092915050565b600082601f83011262000a8457600080fd5b815162000a96848260208601620009d3565b91505092915050565b60008151905062000ab08162000f72565b92915050565b60008060008060008060008060006101208a8c03121562000ad657600080fd5b60008a015167ffffffffffffffff81111562000af157600080fd5b62000aff8c828d0162000a18565b99505060208a015167ffffffffffffffff81111562000b1d57600080fd5b62000b2b8c828d0162000a18565b98505060408a015167ffffffffffffffff81111562000b4957600080fd5b62000b578c828d0162000a45565b97505060608a015167ffffffffffffffff81111562000b7557600080fd5b62000b838c828d0162000a45565b96505060808a015167ffffffffffffffff81111562000ba157600080fd5b62000baf8c828d0162000a45565b95505060a08a015167ffffffffffffffff81111562000bcd57600080fd5b62000bdb8c828d0162000a72565b94505060c08a015167ffffffffffffffff81111562000bf957600080fd5b62000c078c828d0162000a72565b93505060e062000c1a8c828d0162000a9f565b92505061010062000c2e8c828d0162000a9f565b9150509295985092959850929598565b600062000c4b8262000daf565b62000c57818562000dba565b935062000c6981856020860162000e32565b62000c748162000f61565b840191505092915050565b62000c8a8162000e28565b82525050565b6000608082019050818103600083015262000cac818762000c3e565b9050818103602083015262000cc2818662000c3e565b905062000cd3604083018562000c7f565b818103606083015262000ce7818462000c3e565b905095945050505050565b600062000cfe62000d11565b905062000d0c828262000e9e565b919050565b6000604051905090565b600067ffffffffffffffff82111562000d395762000d3862000f32565b5b602082029050602081019050919050565b600067ffffffffffffffff82111562000d685762000d6762000f32565b5b602082029050602081019050919050565b600067ffffffffffffffff82111562000d975762000d9662000f32565b5b62000da28262000f61565b9050602081019050919050565b600081519050919050565b600082825260208201905092915050565b600062000dd88262000e28565b915062000de58362000e28565b9250827fffffffffffffffffffffffffffffffffffffffffffffffffffffffffffffffff0382111562000e1d5762000e1c62000ed4565b5b828201905092915050565b6000819050919050565b60005b8381101562000e5257808201518184015260208101905062000e35565b8381111562000e62576000848401525b50505050565b6000600282049050600182168062000e8157607f821691505b6020821081141562000e985762000e9762000f03565b5b50919050565b62000ea98262000f61565b810181811067ffffffffffffffff8211171562000ecb5762000eca62000f32565b5b80604052505050565b7f4e487b7100000000000000000000000000000000000000000000000000000000600052601160045260246000fd5b7f4e487b7100000000000000000000000000000000000000000000000000000000600052602260045260246000fd5b7f4e487b7100000000000000000000000000000000000000000000000000000000600052604160045260246000fd5b6000601f19601f8301169050919050565b62000f7d8162000e28565b811462000f8957600080fd5b50565b614f818062000f9c6000396000f3fe608060405234801561001057600080fd5b50600436106101425760003560e01c806395d89b41116100b8578063b953084e1161007c578063b953084e1461037f578063c87b56dd1461039d578063c8cf27f4146103cd578063d4f24c5b146103eb578063e985e9c5146103f5578063f8b81ef71461042557610142565b806395d89b41146102d157806398da4c95146102ef578063a22cb46514610325578063a9c3267914610341578063b88d4fde1461036357610142565b806323b872dd1161010a57806323b872dd146101ff57806342842e0e1461021b5780634bb0f50c146102375780636352211e1461024157806370a08231146102715780637df124a1146102a157610142565b806301ffc9a7146101475780630665f9611461017757806306fdde0314610195578063081812fc146101b3578063095ea7b3146101e3575b600080fd5b610161600480360381019061015c9190613536565b610441565b60405161016e9190613e1f565b60405180910390f35b61017f610523565b60405161018c91906141d8565b60405180910390f35b61019d61067f565b6040516101aa9190613e3a565b60405180910390f35b6101cd60048036038101906101c89190613588565b610711565b6040516101da9190613d5f565b60405180910390f35b6101fd60048036038101906101f891906134fa565b610796565b005b610219600480360381019061021491906133f4565b6108ae565b005b610235600480360381019061023091906133f4565b61090e565b005b61023f61092e565b005b61025b60048036038101906102569190613588565b610d6a565b6040516102689190613d5f565b60405180910390f35b61028b6004803603810190610286919061338f565b610e1c565b604051610298919061421c565b60405180910390f35b6102bb60048036038101906102b6919061338f565b610ed4565b6040516102c8919061421c565b60405180910390f35b6102d9610eec565b6040516102e69190613e3a565b60405180910390f35b61030960048036038101906103049190613588565b610f7e565b60405161031c9796959493929190614237565b60405180910390f35b61033f600480360381019061033a91906134be565b6110d0565b005b6103496110e6565b60405161035a959493929190613f09565b60405180910390f35b61037d60048036038101906103789190613443565b61121a565b005b61038761127c565b6040516103949190613dfd565b60405180910390f35b6103b760048036038101906103b29190613588565b611431565b6040516103c49190613e3a565b60405180910390f35b6103d561166a565b6040516103e291906141fa565b60405180910390f35b6103f361184c565b005b61040f600480360381019061040a91906133b8565b611bd9565b60405161041c9190613e1f565b60405180910390f35b61043f600480360381019061043a9190613588565b611c6d565b005b60007f80ac58cd000000000000000000000000000000000000000000000000000000007bffffffffffffffffffffffffffffffffffffffffffffffffffffffff1916827bffffffffffffffffffffffffffffffffffffffffffffffffffffffff1916148061050c57507f5b5e139f000000000000000000000000000000000000000000000000000000007bffffffffffffffffffffffffffffffffffffffffffffffffffffffff1916827bffffffffffffffffffffffffffffffffffffffffffffffffffffffff1916145b8061051c575061051b82612174565b5b9050919050565b61052b6131af565b600a6040518060a001604052908160008201805461054890614562565b80601f016020809104026020016040519081016040528092919081815260200182805461057490614562565b80156105c15780601f10610596576101008083540402835291602001916105c1565b820191906000526020600020905b8154815290600101906020018083116105a457829003601f168201915b505050505081526020016001820180546105da90614562565b80601f016020809104026020016040519081016040528092919081815260200182805461060690614562565b80156106535780601f1061062857610100808354040283529160200191610653565b820191906000526020600020905b81548152906001019060200180831161063657829003601f168201915b505050505081526020016002820154815260200160038201548152602001600482015481525050905090565b60606000805461068e90614562565b80601f01602080910402602001604051908101604052809291908181526020018280546106ba90614562565b80156107075780601f106106dc57610100808354040283529160200191610707565b820191906000526020600020905b8154815290600101906020018083116106ea57829003601f168201915b5050505050905090565b600061071c826121de565b61075b576040517f08c379a000000000000000000000000000000000000000000000000000000000815260040161075290614178565b60405180910390fd5b6004600083815260200190815260200160002060009054906101000a900473ffffffffffffffffffffffffffffffffffffffff169050919050565b60006107a182610d6a565b90508073ffffffffffffffffffffffffffffffffffffffff168373ffffffffffffffffffffffffffffffffffffffff161415610812576040517f08c379a000000000000000000000000000000000000000000000000000000000815260040161080990614198565b60405180910390fd5b8073ffffffffffffffffffffffffffffffffffffffff1661083161224a565b73ffffffffffffffffffffffffffffffffffffffff161480610860575061085f8161085a61224a565b611bd9565b5b61089f576040517f08c379a0000000000000000000000000000000000000000000000000000000008152600401610896906140d8565b60405180910390fd5b6108a98383612252565b505050565b6108bf6108b961224a565b8261230b565b6108fe576040517f08c379a00000000000000000000000000000000000000000000000000000000081526004016108f5906141b8565b60405180910390fd5b6109098383836123e9565b505050565b6109298383836040518060200160405280600081525061121a565b505050565b6000600960003373ffffffffffffffffffffffffffffffffffffffff1673ffffffffffffffffffffffffffffffffffffffff1681526020019081526020016000205490506000600860008381526020019081526020016000209050610a416040518060600160405280603f8152602001614e3b603f91398260010180546109b490614562565b80601f01602080910402602001604051908101604052809291908181526020018280546109e090614562565b8015610a2d5780601f10610a0257610100808354040283529160200191610a2d565b820191906000526020600020905b815481529060010190602001808311610a1057829003601f168201915b505050505083600301548460060154612650565b610b196040518060400160405280601b81526020017f426f73732025732068617320257320485020616e642025732041440000000000815250600a6000018054610a8a90614562565b80601f0160208091040260200160405190810160405280929190818152602001828054610ab690614562565b8015610b035780601f10610ad857610100808354040283529160200191610b03565b820191906000526020600020905b815481529060010190602001808311610ae657829003601f168201915b5050505050600a60020154600a60040154612650565b6000816003015411610b60576040517f08c379a0000000000000000000000000000000000000000000000000000000008152600401610b5790614138565b60405180910390fd5b6000600a6002015411610ba8576040517f08c379a0000000000000000000000000000000000000000000000000000000008152600401610b9f90613fd8565b60405180910390fd5b600a816006015411610bef576040517f08c379a0000000000000000000000000000000000000000000000000000000008152600401610be690614058565b60405180910390fd5b8060050154600a600201541015610c10576000600a60020181905550610c54565b60028160050154610c21919061441e565b600a60020154610c319190614478565b600a60020181905550600a8160060154610c4b9190614478565b81600601819055505b600a6004015481600301541015610c745760008160030181905550610c92565b600a600401548160030154610c899190614478565b81600301819055505b7f32bd565ee3f2cb5ddd742bbecd6048d3e9abe90b3827a40c2b72d232e71e3c9d33600a600201548360030154604051610cce93929190613dc6565b60405180910390a1610cfd604051806060016040528060258152602001614e1660259139600a600201546126f2565b610d23604051806060016040528060288152602001614eba6028913982600301546126f2565b610d666040518060400160405280601581526020017f204e657720706c61796572204d616e613a2025730a000000000000000000000081525082600601546126f2565b5050565b6000806002600084815260200190815260200160002060009054906101000a900473ffffffffffffffffffffffffffffffffffffffff169050600073ffffffffffffffffffffffffffffffffffffffff168173ffffffffffffffffffffffffffffffffffffffff161415610e13576040517f08c379a0000000000000000000000000000000000000000000000000000000008152600401610e0a90614118565b60405180910390fd5b80915050919050565b60008073ffffffffffffffffffffffffffffffffffffffff168273ffffffffffffffffffffffffffffffffffffffff161415610e8d576040517f08c379a0000000000000000000000000000000000000000000000000000000008152600401610e84906140f8565b60405180910390fd5b600360008373ffffffffffffffffffffffffffffffffffffffff1673ffffffffffffffffffffffffffffffffffffffff168152602001908152602001600020549050919050565b60096020528060005260406000206000915090505481565b606060018054610efb90614562565b80601f0160208091040260200160405190810160405280929190818152602001828054610f2790614562565b8015610f745780601f10610f4957610100808354040283529160200191610f74565b820191906000526020600020905b815481529060010190602001808311610f5757829003601f168201915b5050505050905090565b6008602052806000526040600020600091509050806000015490806001018054610fa790614562565b80601f0160208091040260200160405190810160405280929190818152602001828054610fd390614562565b80156110205780601f10610ff557610100808354040283529160200191611020565b820191906000526020600020905b81548152906001019060200180831161100357829003601f168201915b50505050509080600201805461103590614562565b80601f016020809104026020016040519081016040528092919081815260200182805461106190614562565b80156110ae5780601f10611083576101008083540402835291602001916110ae565b820191906000526020600020905b81548152906001019060200180831161109157829003601f168201915b5050505050908060030154908060040154908060050154908060060154905087565b6110e26110db61224a565b838361278e565b5050565b600a8060000180546110f790614562565b80601f016020809104026020016040519081016040528092919081815260200182805461112390614562565b80156111705780601f1061114557610100808354040283529160200191611170565b820191906000526020600020905b81548152906001019060200180831161115357829003601f168201915b50505050509080600101805461118590614562565b80601f01602080910402602001604051908101604052809291908181526020018280546111b190614562565b80156111fe5780601f106111d3576101008083540402835291602001916111fe565b820191906000526020600020905b8154815290600101906020018083116111e157829003601f168201915b5050505050908060020154908060030154908060040154905085565b61122b61122561224a565b8361230b565b61126a576040517f08c379a0000000000000000000000000000000000000000000000000000000008152600401611261906141b8565b60405180910390fd5b611276848484846128fb565b50505050565b60606007805480602002602001604051908101604052809291908181526020016000905b8282101561142857838290600052602060002090600702016040518060e0016040529081600082015481526020016001820180546112dd90614562565b80601f016020809104026020016040519081016040528092919081815260200182805461130990614562565b80156113565780601f1061132b57610100808354040283529160200191611356565b820191906000526020600020905b81548152906001019060200180831161133957829003601f168201915b5050505050815260200160028201805461136f90614562565b80601f016020809104026020016040519081016040528092919081815260200182805461139b90614562565b80156113e85780601f106113bd576101008083540402835291602001916113e8565b820191906000526020600020905b8154815290600101906020018083116113cb57829003601f168201915b50505050508152602001600382015481526020016004820154815260200160058201548152602001600682015481525050815260200190600101906112a0565b50505050905090565b60606000600860008481526020019081526020016000206040518060e00160405290816000820154815260200160018201805461146d90614562565b80601f016020809104026020016040519081016040528092919081815260200182805461149990614562565b80156114e65780601f106114bb576101008083540402835291602001916114e6565b820191906000526020600020905b8154815290600101906020018083116114c957829003601f168201915b505050505081526020016002820180546114ff90614562565b80601f016020809104026020016040519081016040528092919081815260200182805461152b90614562565b80156115785780601f1061154d57610100808354040283529160200191611578565b820191906000526020600020905b81548152906001019060200180831161155b57829003601f168201915b50505050508152602001600382015481526020016004820154815260200160058201548152602001600682015481525050905060006115ba8260600151612957565b905060006115cb8360800151612957565b905060006115dc8460a00151612957565b905060006115ed8560c00151612957565b9050600061163586602001516116028a612957565b8860400151888888886040516020016116219796959493929190613c80565b604051602081830303815290604052612b04565b905060008160405160200161164a9190613d3d565b604051602081830303815290604052905080975050505050505050919050565b6116726131de565b6000600960003373ffffffffffffffffffffffffffffffffffffffff1673ffffffffffffffffffffffffffffffffffffffff168152602001908152602001600020549050600081111561183b57600860008281526020019081526020016000206040518060e0016040529081600082015481526020016001820180546116f790614562565b80601f016020809104026020016040519081016040528092919081815260200182805461172390614562565b80156117705780601f1061174557610100808354040283529160200191611770565b820191906000526020600020905b81548152906001019060200180831161175357829003601f168201915b5050505050815260200160028201805461178990614562565b80601f01602080910402602001604051908101604052809291908181526020018280546117b590614562565b80156118025780601f106117d757610100808354040283529160200191611802565b820191906000526020600020905b8154815290600101906020018083116117e557829003601f168201915b50505050508152602001600382015481526020016004820154815260200160058201548152602001600682015481525050915050611849565b6118436131de565b80925050505b90565b6000600960003373ffffffffffffffffffffffffffffffffffffffff1673ffffffffffffffffffffffffffffffffffffffff168152602001908152602001600020549050600060086000838152602001908152602001600020905061195f6040518060600160405280603c8152602001614f10603c91398260010180546118d290614562565b80601f01602080910402602001604051908101604052809291908181526020018280546118fe90614562565b801561194b5780601f106119205761010080835404028352916020019161194b565b820191906000526020600020905b81548152906001019060200180831161192e57829003601f168201915b505050505083600301548460050154612650565b611a376040518060400160405280601b81526020017f426f73732025732068617320257320485020616e642025732041440000000000815250600a60000180546119a890614562565b80601f01602080910402602001604051908101604052809291908181526020018280546119d490614562565b8015611a215780601f106119f657610100808354040283529160200191611a21565b820191906000526020600020905b815481529060010190602001808311611a0457829003601f168201915b5050505050600a60020154600a60040154612650565b6000816003015411611a7e576040517f08c379a0000000000000000000000000000000000000000000000000000000008152600401611a7590614138565b60405180910390fd5b6000600a6002015411611ac6576040517f08c379a0000000000000000000000000000000000000000000000000000000008152600401611abd90613fd8565b60405180910390fd5b8060050154600a600201541015611ae7576000600a60020181905550611b06565b8060050154600a60020154611afc9190614478565b600a600201819055505b600a6004015481600301541015611b265760008160030181905550611b44565b600a600401548160030154611b3b9190614478565b81600301819055505b7f32bd565ee3f2cb5ddd742bbecd6048d3e9abe90b3827a40c2b72d232e71e3c9d33600a600201548360030154604051611b8093929190613dc6565b60405180910390a1611baf604051806060016040528060258152602001614e1660259139600a600201546126f2565b611bd5604051806060016040528060288152602001614eba6028913982600301546126f2565b5050565b6000600560008473ffffffffffffffffffffffffffffffffffffffff1673ffffffffffffffffffffffffffffffffffffffff16815260200190815260200160002060008373ffffffffffffffffffffffffffffffffffffffff1673ffffffffffffffffffffffffffffffffffffffff16815260200190815260200160002060009054906101000a900460ff16905092915050565b6000611c796006612cc2565b9050611c853382612cd0565b6040518060e0016040528083815260200160078481548110611cd0577f4e487b7100000000000000000000000000000000000000000000000000000000600052603260045260246000fd5b90600052602060002090600702016001018054611cec90614562565b80601f0160208091040260200160405190810160405280929190818152602001828054611d1890614562565b8015611d655780601f10611d3a57610100808354040283529160200191611d65565b820191906000526020600020905b815481529060010190602001808311611d4857829003601f168201915b5050505050815260200160078481548110611da9577f4e487b7100000000000000000000000000000000000000000000000000000000600052603260045260246000fd5b90600052602060002090600702016002018054611dc590614562565b80601f0160208091040260200160405190810160405280929190818152602001828054611df190614562565b8015611e3e5780601f10611e1357610100808354040283529160200191611e3e565b820191906000526020600020905b815481529060010190602001808311611e2157829003601f168201915b5050505050815260200160078481548110611e82577f4e487b7100000000000000000000000000000000000000000000000000000000600052603260045260246000fd5b906000526020600020906007020160030154815260200160078481548110611ed3577f4e487b7100000000000000000000000000000000000000000000000000000000600052603260045260246000fd5b906000526020600020906007020160040154815260200160078481548110611f24577f4e487b7100000000000000000000000000000000000000000000000000000000600052603260045260246000fd5b906000526020600020906007020160050154815260200160078481548110611f75577f4e487b7100000000000000000000000000000000000000000000000000000000600052603260045260246000fd5b90600052602060002090600702016006015481525060086000838152602001908152602001600020600082015181600001556020820151816001019080519060200190611fc392919061321b565b506040820151816002019080519060200190611fe092919061321b565b50606082015181600301556080820151816004015560a0820151816005015560c0820151816006015590505061202f6040518060600160405280602e8152602001614ee2602e91398284612cee565b80600960003373ffffffffffffffffffffffffffffffffffffffff1673ffffffffffffffffffffffffffffffffffffffff1681526020019081526020016000208190555061207d600661215e565b7f4bc303fd457a97b4691b9af582ce71868a3d258638c8d4f8c60988a0f0bfb8cd3382846040516120b093929190613dc6565b60405180910390a15050565b612158848484846040516024016120d69493929190613e5c565b6040516020818303038152906040527f8d142cdd000000000000000000000000000000000000000000000000000000007bffffffffffffffffffffffffffffffffffffffffffffffffffffffff19166020820180517bffffffffffffffffffffffffffffffffffffffffffffffffffffffff8381831617835250505050612d8d565b50505050565b6001816000016000828254019250508190555050565b60007f01ffc9a7000000000000000000000000000000000000000000000000000000007bffffffffffffffffffffffffffffffffffffffffffffffffffffffff1916827bffffffffffffffffffffffffffffffffffffffffffffffffffffffff1916149050919050565b60008073ffffffffffffffffffffffffffffffffffffffff166002600084815260200190815260200160002060009054906101000a900473ffffffffffffffffffffffffffffffffffffffff1673ffffffffffffffffffffffffffffffffffffffff1614159050919050565b600033905090565b816004600083815260200190815260200160002060006101000a81548173ffffffffffffffffffffffffffffffffffffffff021916908373ffffffffffffffffffffffffffffffffffffffff160217905550808273ffffffffffffffffffffffffffffffffffffffff166122c583610d6a565b73ffffffffffffffffffffffffffffffffffffffff167f8c5be1e5ebec7d5bd14f71427d1e84f3dd0314c0f7b2291e5b200ac8c7c3b92560405160405180910390a45050565b6000612316826121de565b612355576040517f08c379a000000000000000000000000000000000000000000000000000000000815260040161234c906140b8565b60405180910390fd5b600061236083610d6a565b90508073ffffffffffffffffffffffffffffffffffffffff168473ffffffffffffffffffffffffffffffffffffffff1614806123cf57508373ffffffffffffffffffffffffffffffffffffffff166123b784610711565b73ffffffffffffffffffffffffffffffffffffffff16145b806123e057506123df8185611bd9565b5b91505092915050565b8273ffffffffffffffffffffffffffffffffffffffff1661240982610d6a565b73ffffffffffffffffffffffffffffffffffffffff161461245f576040517f08c379a000000000000000000000000000000000000000000000000000000000815260040161245690614018565b60405180910390fd5b600073ffffffffffffffffffffffffffffffffffffffff168273ffffffffffffffffffffffffffffffffffffffff1614156124cf576040517f08c379a00000000000000000000000000000000000000000000000000000000081526004016124c690614078565b60405180910390fd5b6124da838383612db6565b6124e5600082612252565b6001600360008573ffffffffffffffffffffffffffffffffffffffff1673ffffffffffffffffffffffffffffffffffffffff16815260200190815260200160002060008282546125359190614478565b925050819055506001600360008473ffffffffffffffffffffffffffffffffffffffff1673ffffffffffffffffffffffffffffffffffffffff168152602001908152602001600020600082825461258c9190614397565b92505081905550816002600083815260200190815260200160002060006101000a81548173ffffffffffffffffffffffffffffffffffffffff021916908373ffffffffffffffffffffffffffffffffffffffff160217905550808273ffffffffffffffffffffffffffffffffffffffff168473ffffffffffffffffffffffffffffffffffffffff167fddf252ad1be2c89b69c2b068fc378daa952ba7f163c4a11628f55a4df523b3ef60405160405180910390a461264b838383612dbb565b505050565b6126ec8484848460405160240161266a9493929190613eb6565b6040516020818303038152906040527fd5cf17d0000000000000000000000000000000000000000000000000000000007bffffffffffffffffffffffffffffffffffffffffffffffffffffffff19166020820180517bffffffffffffffffffffffffffffffffffffffffffffffffffffffff8381831617835250505050612d8d565b50505050565b61278a8282604051602401612708929190613f6a565b6040516020818303038152906040527f9710a9d0000000000000000000000000000000000000000000000000000000007bffffffffffffffffffffffffffffffffffffffffffffffffffffffff19166020820180517bffffffffffffffffffffffffffffffffffffffffffffffffffffffff8381831617835250505050612d8d565b5050565b8173ffffffffffffffffffffffffffffffffffffffff168373ffffffffffffffffffffffffffffffffffffffff1614156127fd576040517f08c379a00000000000000000000000000000000000000000000000000000000081526004016127f490614098565b60405180910390fd5b80600560008573ffffffffffffffffffffffffffffffffffffffff1673ffffffffffffffffffffffffffffffffffffffff16815260200190815260200160002060008473ffffffffffffffffffffffffffffffffffffffff1673ffffffffffffffffffffffffffffffffffffffff16815260200190815260200160002060006101000a81548160ff0219169083151502179055508173ffffffffffffffffffffffffffffffffffffffff168373ffffffffffffffffffffffffffffffffffffffff167f17307eab39ab6107e8899845ad3d59bd9653f200f220920489ca2b5937696c31836040516128ee9190613e1f565b60405180910390a3505050565b6129068484846123e9565b61291284848484612dc0565b612951576040517f08c379a000000000000000000000000000000000000000000000000000000000815260040161294890613ff8565b60405180910390fd5b50505050565b6060600082141561299f576040518060400160405280600181526020017f30000000000000000000000000000000000000000000000000000000000000008152509050612aff565b600082905060005b600082146129d15780806129ba906145c5565b915050600a826129ca91906143ed565b91506129a7565b60008167ffffffffffffffff811115612a13577f4e487b7100000000000000000000000000000000000000000000000000000000600052604160045260246000fd5b6040519080825280601f01601f191660200182016040528015612a455781602001600182028036833780820191505090505b5090505b60008514612af857600182612a5e9190614478565b9150600a85612a6d919061460e565b6030612a799190614397565b60f81b818381518110612ab5577f4e487b7100000000000000000000000000000000000000000000000000000000600052603260045260246000fd5b60200101907effffffffffffffffffffffffffffffffffffffffffffffffffffffffffffff1916908160001a905350600a85612af191906143ed565b9450612a49565b8093505050505b919050565b60606000825190506000811415612b2d5760405180602001604052806000815250915050612cbd565b60006003600283612b3e9190614397565b612b4891906143ed565b6004612b54919061441e565b90506000602082612b659190614397565b67ffffffffffffffff811115612ba4577f4e487b7100000000000000000000000000000000000000000000000000000000600052604160045260246000fd5b6040519080825280601f01601f191660200182016040528015612bd65781602001600182028036833780820191505090505b5090506000604051806060016040528060408152602001614e7a604091399050600181016020830160005b86811015612c7a5760038101905062ffffff818a015116603f8160121c168401518060081b905060ff603f83600c1c1686015116810190508060081b905060ff603f8360061c1686015116810190508060081b905060ff603f831686015116810190508060e01b90508084526004840193505050612c01565b506003860660018114612c945760028114612ca457612caf565b613d3d60f01b6002830352612caf565b603d60f81b60018303525b508484525050819450505050505b919050565b600081600001549050919050565b612cea828260405180602001604052806000815250612f57565b5050565b612d88838383604051602401612d0693929190613f9a565b6040516020818303038152906040527f969cdd03000000000000000000000000000000000000000000000000000000007bffffffffffffffffffffffffffffffffffffffffffffffffffffffff19166020820180517bffffffffffffffffffffffffffffffffffffffffffffffffffffffff8381831617835250505050612d8d565b505050565b60008151905060006a636f6e736f6c652e6c6f679050602083016000808483855afa5050505050565b505050565b505050565b6000612de18473ffffffffffffffffffffffffffffffffffffffff16612fb2565b15612f4a578373ffffffffffffffffffffffffffffffffffffffff1663150b7a02612e0a61224a565b8786866040518563ffffffff1660e01b8152600401612e2c9493929190613d7a565b602060405180830381600087803b158015612e4657600080fd5b505af1925050508015612e7757506040513d601f19601f82011682018060405250810190612e74919061355f565b60015b612efa573d8060008114612ea7576040519150601f19603f3d011682016040523d82523d6000602084013e612eac565b606091505b50600081511415612ef2576040517f08c379a0000000000000000000000000000000000000000000000000000000008152600401612ee990613ff8565b60405180910390fd5b805181602001fd5b63150b7a0260e01b7bffffffffffffffffffffffffffffffffffffffffffffffffffffffff1916817bffffffffffffffffffffffffffffffffffffffffffffffffffffffff191614915050612f4f565b600190505b949350505050565b612f618383612fd5565b612f6e6000848484612dc0565b612fad576040517f08c379a0000000000000000000000000000000000000000000000000000000008152600401612fa490613ff8565b60405180910390fd5b505050565b6000808273ffffffffffffffffffffffffffffffffffffffff163b119050919050565b600073ffffffffffffffffffffffffffffffffffffffff168273ffffffffffffffffffffffffffffffffffffffff161415613045576040517f08c379a000000000000000000000000000000000000000000000000000000000815260040161303c90614158565b60405180910390fd5b61304e816121de565b1561308e576040517f08c379a000000000000000000000000000000000000000000000000000000000815260040161308590614038565b60405180910390fd5b61309a60008383612db6565b6001600360008473ffffffffffffffffffffffffffffffffffffffff1673ffffffffffffffffffffffffffffffffffffffff16815260200190815260200160002060008282546130ea9190614397565b92505081905550816002600083815260200190815260200160002060006101000a81548173ffffffffffffffffffffffffffffffffffffffff021916908373ffffffffffffffffffffffffffffffffffffffff160217905550808273ffffffffffffffffffffffffffffffffffffffff16600073ffffffffffffffffffffffffffffffffffffffff167fddf252ad1be2c89b69c2b068fc378daa952ba7f163c4a11628f55a4df523b3ef60405160405180910390a46131ab60008383612dbb565b5050565b6040518060a0016040528060608152602001606081526020016000815260200160008152602001600081525090565b6040518060e00160405280600081526020016060815260200160608152602001600081526020016000815260200160008152602001600081525090565b82805461322790614562565b90600052602060002090601f0160209004810192826132495760008555613290565b82601f1061326257805160ff1916838001178555613290565b82800160010185558215613290579182015b8281111561328f578251825591602001919060010190613274565b5b50905061329d91906132a1565b5090565b5b808211156132ba5760008160009055506001016132a2565b5090565b60006132d16132cc846142d9565b6142b4565b9050828152602081018484840111156132e957600080fd5b6132f4848285614520565b509392505050565b60008135905061330b81614db9565b92915050565b60008135905061332081614dd0565b92915050565b60008135905061333581614de7565b92915050565b60008151905061334a81614de7565b92915050565b600082601f83011261336157600080fd5b81356133718482602086016132be565b91505092915050565b60008135905061338981614dfe565b92915050565b6000602082840312156133a157600080fd5b60006133af848285016132fc565b91505092915050565b600080604083850312156133cb57600080fd5b60006133d9858286016132fc565b92505060206133ea858286016132fc565b9150509250929050565b60008060006060848603121561340957600080fd5b6000613417868287016132fc565b9350506020613428868287016132fc565b92505060406134398682870161337a565b9150509250925092565b6000806000806080858703121561345957600080fd5b6000613467878288016132fc565b9450506020613478878288016132fc565b93505060406134898782880161337a565b925050606085013567ffffffffffffffff8111156134a657600080fd5b6134b287828801613350565b91505092959194509250565b600080604083850312156134d157600080fd5b60006134df858286016132fc565b92505060206134f085828601613311565b9150509250929050565b6000806040838503121561350d57600080fd5b600061351b858286016132fc565b925050602061352c8582860161337a565b9150509250929050565b60006020828403121561354857600080fd5b600061355684828501613326565b91505092915050565b60006020828403121561357157600080fd5b600061357f8482850161333b565b91505092915050565b60006020828403121561359a57600080fd5b60006135a88482850161337a565b91505092915050565b60006135bd8383613b1c565b905092915050565b6135ce816144ac565b82525050565b60006135df8261431a565b6135e98185614348565b9350836020820285016135fb8561430a565b8060005b85811015613637578484038952815161361885826135b1565b94506136238361433b565b925060208a019950506001810190506135ff565b50829750879550505050505092915050565b613652816144be565b82525050565b600061366382614325565b61366d8185614359565b935061367d81856020860161452f565b613686816146fb565b840191505092915050565b600061369c82614330565b6136a6818561436a565b93506136b681856020860161452f565b6136bf816146fb565b840191505092915050565b60006136d582614330565b6136df818561437b565b93506136ef81856020860161452f565b6136f8816146fb565b840191505092915050565b600061370e82614330565b613718818561438c565b935061372881856020860161452f565b80840191505092915050565b6000613741600b8361438c565b915061374c8261470c565b600b82019050919050565b6000613764602d8361437b565b915061376f82614735565b604082019050919050565b600061378760328361437b565b915061379282614784565b604082019050919050565b60006137aa60258361437b565b91506137b5826147d3565b604082019050919050565b60006137cd601c8361437b565b91506137d882614822565b602082019050919050565b60006137f0602f8361437b565b91506137fb8261484b565b604082019050919050565b6000613813600e8361438c565b915061381e8261489a565b600e82019050919050565b600061383660248361437b565b9150613841826148c3565b604082019050919050565b600061385960198361437b565b915061386482614912565b602082019050919050565b600061387c602c8361437b565b91506138878261493b565b604082019050919050565b600061389f60388361437b565b91506138aa8261498a565b604082019050919050565b60006138c2602a8361437b565b91506138cd826149d9565b604082019050919050565b60006138e560298361437b565b91506138f082614a28565b604082019050919050565b600061390860628361438c565b915061391382614a77565b606282019050919050565b600061392b602d8361437b565b915061393682614b12565b604082019050919050565b600061394e60048361438c565b915061395982614b61565b600482019050919050565b600061397160208361437b565b915061397c82614b8a565b602082019050919050565b6000613994602c8361437b565b915061399f82614bb3565b604082019050919050565b60006139b7600a8361438c565b91506139c282614c02565b600a82019050919050565b60006139da60218361437b565b91506139e582614c2b565b604082019050919050565b60006139fd601d8361438c565b9150613a0882614c7a565b601d82019050919050565b6000613a2060318361437b565b9150613a2b82614ca3565b604082019050919050565b6000613a43603d8361438c565b9150613a4e82614cf2565b603d82019050919050565b6000613a66602d8361438c565b9150613a7182614d41565b602d82019050919050565b6000613a89601f8361438c565b9150613a9482614d90565b601f82019050919050565b600060a0830160008301518482036000860152613abc8282613691565b91505060208301518482036020860152613ad68282613691565b9150506040830151613aeb6040860182613c62565b506060830151613afe6060860182613c62565b506080830151613b116080860182613c62565b508091505092915050565b600060e083016000830151613b346000860182613c62565b5060208301518482036020860152613b4c8282613691565b91505060408301518482036040860152613b668282613691565b9150506060830151613b7b6060860182613c62565b506080830151613b8e6080860182613c62565b5060a0830151613ba160a0860182613c62565b5060c0830151613bb460c0860182613c62565b508091505092915050565b600060e083016000830151613bd76000860182613c62565b5060208301518482036020860152613bef8282613691565b91505060408301518482036040860152613c098282613691565b9150506060830151613c1e6060860182613c62565b506080830151613c316080860182613c62565b5060a0830151613c4460a0860182613c62565b5060c0830151613c5760c0860182613c62565b508091505092915050565b613c6b81614516565b82525050565b613c7a81614516565b82525050565b6000613c8b826139aa565b9150613c97828a613703565b9150613ca282613734565b9150613cae8289613703565b9150613cb9826138fb565b9150613cc58288613703565b9150613cd082613a36565b9150613cdc8287613703565b9150613ce782613806565b9150613cf38286613703565b9150613cfe82613a59565b9150613d0a8285613703565b9150613d1582613a7c565b9150613d218284613703565b9150613d2c82613941565b915081905098975050505050505050565b6000613d48826139f0565b9150613d548284613703565b915081905092915050565b6000602082019050613d7460008301846135c5565b92915050565b6000608082019050613d8f60008301876135c5565b613d9c60208301866135c5565b613da96040830185613c71565b8181036060830152613dbb8184613658565b905095945050505050565b6000606082019050613ddb60008301866135c5565b613de86020830185613c71565b613df56040830184613c71565b949350505050565b60006020820190508181036000830152613e1781846135d4565b905092915050565b6000602082019050613e346000830184613649565b92915050565b60006020820190508181036000830152613e5481846136ca565b905092915050565b60006080820190508181036000830152613e7681876136ca565b90508181036020830152613e8a81866136ca565b9050613e996040830185613c71565b8181036060830152613eab81846136ca565b905095945050505050565b60006080820190508181036000830152613ed081876136ca565b90508181036020830152613ee481866136ca565b9050613ef36040830185613c71565b613f006060830184613c71565b95945050505050565b600060a0820190508181036000830152613f2381886136ca565b90508181036020830152613f3781876136ca565b9050613f466040830186613c71565b613f536060830185613c71565b613f606080830184613c71565b9695505050505050565b60006040820190508181036000830152613f8481856136ca565b9050613f936020830184613c71565b9392505050565b60006060820190508181036000830152613fb481866136ca565b9050613fc36020830185613c71565b613fd06040830184613c71565b949350505050565b60006020820190508181036000830152613ff181613757565b9050919050565b600060208201905081810360008301526140118161377a565b9050919050565b600060208201905081810360008301526140318161379d565b9050919050565b60006020820190508181036000830152614051816137c0565b9050919050565b60006020820190508181036000830152614071816137e3565b9050919050565b6000602082019050818103600083015261409181613829565b9050919050565b600060208201905081810360008301526140b18161384c565b9050919050565b600060208201905081810360008301526140d18161386f565b9050919050565b600060208201905081810360008301526140f181613892565b9050919050565b60006020820190508181036000830152614111816138b5565b9050919050565b60006020820190508181036000830152614131816138d8565b9050919050565b600060208201905081810360008301526141518161391e565b9050919050565b6000602082019050818103600083015261417181613964565b9050919050565b6000602082019050818103600083015261419181613987565b9050919050565b600060208201905081810360008301526141b1816139cd565b9050919050565b600060208201905081810360008301526141d181613a13565b9050919050565b600060208201905081810360008301526141f28184613a9f565b905092915050565b600060208201905081810360008301526142148184613bbf565b905092915050565b60006020820190506142316000830184613c71565b92915050565b600060e08201905061424c600083018a613c71565b818103602083015261425e81896136ca565b9050818103604083015261427281886136ca565b90506142816060830187613c71565b61428e6080830186613c71565b61429b60a0830185613c71565b6142a860c0830184613c71565b98975050505050505050565b60006142be6142cf565b90506142ca8282614594565b919050565b6000604051905090565b600067ffffffffffffffff8211156142f4576142f36146cc565b5b6142fd826146fb565b9050602081019050919050565b6000819050602082019050919050565b600081519050919050565b600081519050919050565b600081519050919050565b6000602082019050919050565b600082825260208201905092915050565b600082825260208201905092915050565b600082825260208201905092915050565b600082825260208201905092915050565b600081905092915050565b60006143a282614516565b91506143ad83614516565b9250827fffffffffffffffffffffffffffffffffffffffffffffffffffffffffffffffff038211156143e2576143e161463f565b5b828201905092915050565b60006143f882614516565b915061440383614516565b9250826144135761441261466e565b5b828204905092915050565b600061442982614516565b915061443483614516565b9250817fffffffffffffffffffffffffffffffffffffffffffffffffffffffffffffffff048311821515161561446d5761446c61463f565b5b828202905092915050565b600061448382614516565b915061448e83614516565b9250828210156144a1576144a061463f565b5b828203905092915050565b60006144b7826144f6565b9050919050565b60008115159050919050565b60007fffffffff0000000000000000000000000000000000000000000000000000000082169050919050565b600073ffffffffffffffffffffffffffffffffffffffff82169050919050565b6000819050919050565b82818337600083830152505050565b60005b8381101561454d578082015181840152602081019050614532565b8381111561455c576000848401525b50505050565b6000600282049050600182168061457a57607f821691505b6020821081141561458e5761458d61469d565b5b50919050565b61459d826146fb565b810181811067ffffffffffffffff821117156145bc576145bb6146cc565b5b80604052505050565b60006145d082614516565b91507fffffffffffffffffffffffffffffffffffffffffffffffffffffffffffffffff8214156146035761460261463f565b5b600182019050919050565b600061461982614516565b915061462483614516565b9250826146345761463361466e565b5b828206905092915050565b7f4e487b7100000000000000000000000000000000000000000000000000000000600052601160045260246000fd5b7f4e487b7100000000000000000000000000000000000000000000000000000000600052601260045260246000fd5b7f4e487b7100000000000000000000000000000000000000000000000000000000600052602260045260246000fd5b7f4e487b7100000000000000000000000000000000000000000000000000000000600052604160045260246000fd5b6000601f19601f8301169050919050565b7f202d2d204e465420233a20000000000000000000000000000000000000000000600082015250565b7f4572726f723a20626f7373206d757374206861766520485020746f206174746160008201527f636b206368617261637465722e00000000000000000000000000000000000000602082015250565b7f4552433732313a207472616e7366657220746f206e6f6e20455243373231526560008201527f63656976657220696d706c656d656e7465720000000000000000000000000000602082015250565b7f4552433732313a207472616e736665722066726f6d20696e636f72726563742060008201527f6f776e6572000000000000000000000000000000000000000000000000000000602082015250565b7f4552433732313a20746f6b656e20616c7265616479206d696e74656400000000600082015250565b7f4572726f723a20636861726163746572206d7573742068617665204d414e412060008201527f746f2061747461636b20626f73732e0000000000000000000000000000000000602082015250565b7f2c20226d61785f76616c7565223a000000000000000000000000000000000000600082015250565b7f4552433732313a207472616e7366657220746f20746865207a65726f2061646460008201527f7265737300000000000000000000000000000000000000000000000000000000602082015250565b7f4552433732313a20617070726f766520746f2063616c6c657200000000000000600082015250565b7f4552433732313a206f70657261746f7220717565727920666f72206e6f6e657860008201527f697374656e7420746f6b656e0000000000000000000000000000000000000000602082015250565b7f4552433732313a20617070726f76652063616c6c6572206973206e6f74206f7760008201527f6e6572206e6f7220617070726f76656420666f7220616c6c0000000000000000602082015250565b7f4552433732313a2062616c616e636520717565727920666f7220746865207a6560008201527f726f206164647265737300000000000000000000000000000000000000000000602082015250565b7f4552433732313a206f776e657220717565727920666f72206e6f6e657869737460008201527f656e7420746f6b656e0000000000000000000000000000000000000000000000602082015250565b7f222c20226465736372697074696f6e223a20225468697320697320616e204e4660008201527f542074686174206c6574732070656f706c6520706c617920696e20746865206760208201527f616d65204d657461766572736520536c6179657221222c2022696d616765223a60408201527f2022000000000000000000000000000000000000000000000000000000000000606082015250565b7f4572726f723a20636861726163746572206d757374206861766520485020746f60008201527f2061747461636b20626f73732e00000000000000000000000000000000000000602082015250565b7f7d205d7d00000000000000000000000000000000000000000000000000000000600082015250565b7f4552433732313a206d696e7420746f20746865207a65726f2061646472657373600082015250565b7f4552433732313a20617070726f76656420717565727920666f72206e6f6e657860008201527f697374656e7420746f6b656e0000000000000000000000000000000000000000602082015250565b7f7b226e616d65223a202200000000000000000000000000000000000000000000600082015250565b7f4552433732313a20617070726f76616c20746f2063757272656e74206f776e6560008201527f7200000000000000000000000000000000000000000000000000000000000000602082015250565b7f646174613a6170706c69636174696f6e2f6a736f6e3b6261736536342c000000600082015250565b7f4552433732313a207472616e736665722063616c6c6572206973206e6f74206f60008201527f776e6572206e6f7220617070726f766564000000000000000000000000000000602082015250565b7f222c202261747472696275746573223a205b207b202274726169745f7479706560008201527f223a20224865616c746820506f696e7473222c202276616c7565223a20000000602082015250565b7f7d2c207b202274726169745f74797065223a202241747461636b2044616d616760008201527f65222c202276616c7565223a2000000000000000000000000000000000000000602082015250565b7f7d2c7b2274726169745f74797065223a224d616e61222c2276616c7565223a00600082015250565b614dc2816144ac565b8114614dcd57600080fd5b50565b614dd9816144be565b8114614de457600080fd5b50565b614df0816144ca565b8114614dfb57600080fd5b50565b614e0781614516565b8114614e1257600080fd5b5056fe506c617965722061747461636b656420626f73732e204e657720626f73732068703a2025730a506c6179657220772f206368617261637465722025732061626f757420746f2061747461636b2e204861732025732048502020616e64202573204d616e614142434445464748494a4b4c4d4e4f505152535455565758595a6162636465666768696a6b6c6d6e6f707172737475767778797a303132333435363738392b2f426f73732061747461636b656420706c617965722e204e657720706c617965722068703a2025730a4d696e746564204e465420772f20746f6b656e496420257320616e6420636861726163746572496e6465782025730a506c6179657220772f206368617261637465722025732061626f757420746f2061747461636b2e2048617320257320485020616e64202573204144a2646970667358221220b855e9fe158e6b4cc62b02815263e24498342e2cc0897bb17215c83ac04b18e764736f6c63430008010033446f6e6520696e697469616c697a696e6720257320772f2048502025732c20696d67202573446f6e6520696e697469616c697a696e6720626f737320257320772f2048502025732c20696d67202573",
  "linkReferences": {},
  "deployedLinkReferences": {}
}